{
  "_format": "hh-sol-artifact-1",
  "contractName": "WavePortal",
  "sourceName": "contracts/WavePortal.sol",
  "abi": [
    {
      "inputs": [],
      "stateMutability": "payable",
      "type": "constructor"
    },
    {
      "anonymous": false,
      "inputs": [
        {
          "indexed": true,
          "internalType": "address",
          "name": "from",
          "type": "address"
        },
        {
          "indexed": false,
          "internalType": "uint256",
          "name": "timestamp",
          "type": "uint256"
        },
        {
          "indexed": false,
          "internalType": "string",
          "name": "message",
          "type": "string"
        }
      ],
      "name": "NewWave",
      "type": "event"
    },
    {
      "inputs": [],
      "name": "getAllWaves",
      "outputs": [
        {
          "components": [
            {
              "internalType": "address",
              "name": "waver",
              "type": "address"
            },
            {
              "internalType": "string",
              "name": "message",
              "type": "string"
            },
            {
              "internalType": "uint256",
              "name": "timestamp",
              "type": "uint256"
            }
          ],
          "internalType": "struct WavePortal.Wave[]",
          "name": "",
          "type": "tuple[]"
        }
      ],
      "stateMutability": "view",
      "type": "function"
    },
    {
      "inputs": [],
      "name": "getTotalWaves",
      "outputs": [
        {
          "internalType": "uint256",
          "name": "",
          "type": "uint256"
        }
      ],
      "stateMutability": "view",
      "type": "function"
    },
    {
      "inputs": [
        {
          "internalType": "address",
          "name": "",
          "type": "address"
        }
      ],
      "name": "lastWavesAt",
      "outputs": [
        {
          "internalType": "uint256",
          "name": "",
          "type": "uint256"
        }
      ],
      "stateMutability": "view",
      "type": "function"
    },
    {
      "inputs": [
        {
          "internalType": "string",
          "name": "_message",
          "type": "string"
        }
      ],
      "name": "wave",
      "outputs": [],
      "stateMutability": "nonpayable",
      "type": "function"
    }
  ],
  "bytecode": "0x60806040526200004f6040518060400160405280600d81526020017f49276d2066697265642075702e000000000000000000000000000000000000008152506200007760201b6200063f1760201c565b606444426200005f91906200017c565b6200006b9190620001e6565b600181905550620002dc565b62000117816040516024016200008e9190620002b8565b6040516020818303038152906040527f41304fac000000000000000000000000000000000000000000000000000000007bffffffffffffffffffffffffffffffffffffffffffffffffffffffff19166020820180517bffffffffffffffffffffffffffffffffffffffffffffffffffffffff83818316178352505050506200011a60201b60201c565b50565b60008151905060006a636f6e736f6c652e6c6f679050602083016000808483855afa5050505050565b6000819050919050565b7f4e487b7100000000000000000000000000000000000000000000000000000000600052601160045260246000fd5b6000620001898262000143565b9150620001968362000143565b9250828201905080821115620001b157620001b06200014d565b5b92915050565b7f4e487b7100000000000000000000000000000000000000000000000000000000600052601260045260246000fd5b6000620001f38262000143565b9150620002008362000143565b925082620002135762000212620001b7565b5b828206905092915050565b600081519050919050565b600082825260208201905092915050565b60005b838110156200025a5780820151818401526020810190506200023d565b60008484015250505050565b6000601f19601f8301169050919050565b600062000284826200021e565b62000290818562000229565b9350620002a28185602086016200023a565b620002ad8162000266565b840191505092915050565b60006020820190508181036000830152620002d4818462000277565b905092915050565b61142e80620002ec6000396000f3fe608060405234801561001057600080fd5b506004361061004c5760003560e01c8063449d46c0146100515780639a2cdc081461006d578063bd43a9081461008b578063c47742b9146100a9575b600080fd5b61006b60048036038101906100669190610a32565b6100d9565b005b6100756104cd565b6040516100829190610a94565b60405180910390f35b6100936104d6565b6040516100a09190610c90565b60405180910390f35b6100c360048036038101906100be9190610cde565b610627565b6040516100d09190610a94565b60405180910390f35b42601e600360003373ffffffffffffffffffffffffffffffffffffffff1673ffffffffffffffffffffffffffffffffffffffff168152602001908152602001600020546101269190610d3a565b10610166576040517f08c379a000000000000000000000000000000000000000000000000000000000815260040161015d90610df1565b60405180910390fd5b42600360003373ffffffffffffffffffffffffffffffffffffffff1673ffffffffffffffffffffffffffffffffffffffff1681526020019081526020016000208190555060016000808282546101bc9190610d3a565b925050819055506102036040518060400160405280601b81526020017f2573207761766564212077697468206d6573736167653a20257320000000000081525033836106d8565b600260405180606001604052803373ffffffffffffffffffffffffffffffffffffffff16815260200183815260200142815250908060018154018082558091505060019003906000526020600020906003020160009091909190915060008201518160000160006101000a81548173ffffffffffffffffffffffffffffffffffffffff021916908373ffffffffffffffffffffffffffffffffffffffff16021790555060208201518160010190816102bb919061101d565b50604082015181600201555050606460015442446102d99190610d3a565b6102e39190610d3a565b6102ed919061111e565b6001819055506103346040518060400160405280601681526020017f52616e646f6d20232067656e6572617465643a20256400000000000000000000815250600154610777565b60326001541161047a5761037d6040518060400160405280600781526020017f257320776f6e210000000000000000000000000000000000000000000000000081525033610813565b6000655af3107a40009050478111156103cb576040517f08c379a00000000000000000000000000000000000000000000000000000000081526004016103c2906111c1565b60405180910390fd5b60003373ffffffffffffffffffffffffffffffffffffffff16826040516103f190611212565b60006040518083038185875af1925050503d806000811461042e576040519150601f19603f3d011682016040523d82523d6000602084013e610433565b606091505b5050905080610477576040517f08c379a000000000000000000000000000000000000000000000000000000000815260040161046e90611299565b60405180910390fd5b50505b3373ffffffffffffffffffffffffffffffffffffffff167f5f7e16dc676677766a70e9c5628aa6c54ddb8b6e5188e2ae1e1f17f1ffbea71642836040516104c29291906112f2565b60405180910390a250565b60008054905090565b60606002805480602002602001604051908101604052809291908181526020016000905b8282101561061e57838290600052602060002090600302016040518060600160405290816000820160009054906101000a900473ffffffffffffffffffffffffffffffffffffffff1673ffffffffffffffffffffffffffffffffffffffff1673ffffffffffffffffffffffffffffffffffffffff16815260200160018201805461058390610e40565b80601f01602080910402602001604051908101604052809291908181526020018280546105af90610e40565b80156105fc5780601f106105d1576101008083540402835291602001916105fc565b820191906000526020600020905b8154815290600101906020018083116105df57829003601f168201915b50505050508152602001600282015481525050815260200190600101906104fa565b50505050905090565b60036020528060005260406000206000915090505481565b6106d5816040516024016106539190611322565b6040516020818303038152906040527f41304fac000000000000000000000000000000000000000000000000000000007bffffffffffffffffffffffffffffffffffffffffffffffffffffffff19166020820180517bffffffffffffffffffffffffffffffffffffffffffffffffffffffff83818316178352505050506108af565b50565b6107728383836040516024016106f093929190611353565b6040516020818303038152906040527fe0e9ad4f000000000000000000000000000000000000000000000000000000007bffffffffffffffffffffffffffffffffffffffffffffffffffffffff19166020820180517bffffffffffffffffffffffffffffffffffffffffffffffffffffffff83818316178352505050506108af565b505050565b61080f828260405160240161078d929190611398565b6040516020818303038152906040527fb60e72cc000000000000000000000000000000000000000000000000000000007bffffffffffffffffffffffffffffffffffffffffffffffffffffffff19166020820180517bffffffffffffffffffffffffffffffffffffffffffffffffffffffff83818316178352505050506108af565b5050565b6108ab82826040516024016108299291906113c8565b6040516020818303038152906040527f319af333000000000000000000000000000000000000000000000000000000007bffffffffffffffffffffffffffffffffffffffffffffffffffffffff19166020820180517bffffffffffffffffffffffffffffffffffffffffffffffffffffffff83818316178352505050506108af565b5050565b60008151905060006a636f6e736f6c652e6c6f679050602083016000808483855afa5050505050565b6000604051905090565b600080fd5b600080fd5b600080fd5b600080fd5b6000601f19601f8301169050919050565b7f4e487b7100000000000000000000000000000000000000000000000000000000600052604160045260246000fd5b61093f826108f6565b810181811067ffffffffffffffff8211171561095e5761095d610907565b5b80604052505050565b60006109716108d8565b905061097d8282610936565b919050565b600067ffffffffffffffff82111561099d5761099c610907565b5b6109a6826108f6565b9050602081019050919050565b82818337600083830152505050565b60006109d56109d084610982565b610967565b9050828152602081018484840111156109f1576109f06108f1565b5b6109fc8482856109b3565b509392505050565b600082601f830112610a1957610a186108ec565b5b8135610a298482602086016109c2565b91505092915050565b600060208284031215610a4857610a476108e2565b5b600082013567ffffffffffffffff811115610a6657610a656108e7565b5b610a7284828501610a04565b91505092915050565b6000819050919050565b610a8e81610a7b565b82525050565b6000602082019050610aa96000830184610a85565b92915050565b600081519050919050565b600082825260208201905092915050565b6000819050602082019050919050565b600073ffffffffffffffffffffffffffffffffffffffff82169050919050565b6000610b0682610adb565b9050919050565b610b1681610afb565b82525050565b600081519050919050565b600082825260208201905092915050565b60005b83811015610b56578082015181840152602081019050610b3b565b60008484015250505050565b6000610b6d82610b1c565b610b778185610b27565b9350610b87818560208601610b38565b610b90816108f6565b840191505092915050565b610ba481610a7b565b82525050565b6000606083016000830151610bc26000860182610b0d565b5060208301518482036020860152610bda8282610b62565b9150506040830151610bef6040860182610b9b565b508091505092915050565b6000610c068383610baa565b905092915050565b6000602082019050919050565b6000610c2682610aaf565b610c308185610aba565b935083602082028501610c4285610acb565b8060005b85811015610c7e5784840389528151610c5f8582610bfa565b9450610c6a83610c0e565b925060208a01995050600181019050610c46565b50829750879550505050505092915050565b60006020820190508181036000830152610caa8184610c1b565b905092915050565b610cbb81610afb565b8114610cc657600080fd5b50565b600081359050610cd881610cb2565b92915050565b600060208284031215610cf457610cf36108e2565b5b6000610d0284828501610cc9565b91505092915050565b7f4e487b7100000000000000000000000000000000000000000000000000000000600052601160045260246000fd5b6000610d4582610a7b565b9150610d5083610a7b565b9250828201905080821115610d6857610d67610d0b565b5b92915050565b600082825260208201905092915050565b7f4d7573742077616974203330207365636f6e6473206265666f7265207761766960008201527f6e6720616761696e2e0000000000000000000000000000000000000000000000602082015250565b6000610ddb602983610d6e565b9150610de682610d7f565b604082019050919050565b60006020820190508181036000830152610e0a81610dce565b9050919050565b7f4e487b7100000000000000000000000000000000000000000000000000000000600052602260045260246000fd5b60006002820490506001821680610e5857607f821691505b602082108103610e6b57610e6a610e11565b5b50919050565b60008190508160005260206000209050919050565b60006020601f8301049050919050565b600082821b905092915050565b600060088302610ed37fffffffffffffffffffffffffffffffffffffffffffffffffffffffffffffffff82610e96565b610edd8683610e96565b95508019841693508086168417925050509392505050565b6000819050919050565b6000610f1a610f15610f1084610a7b565b610ef5565b610a7b565b9050919050565b6000819050919050565b610f3483610eff565b610f48610f4082610f21565b848454610ea3565b825550505050565b600090565b610f5d610f50565b610f68818484610f2b565b505050565b5b81811015610f8c57610f81600082610f55565b600181019050610f6e565b5050565b601f821115610fd157610fa281610e71565b610fab84610e86565b81016020851015610fba578190505b610fce610fc685610e86565b830182610f6d565b50505b505050565b600082821c905092915050565b6000610ff460001984600802610fd6565b1980831691505092915050565b600061100d8383610fe3565b9150826002028217905092915050565b61102682610b1c565b67ffffffffffffffff81111561103f5761103e610907565b5b6110498254610e40565b611054828285610f90565b600060209050601f8311600181146110875760008415611075578287015190505b61107f8582611001565b8655506110e7565b601f19841661109586610e71565b60005b828110156110bd57848901518255600182019150602085019450602081019050611098565b868310156110da57848901516110d6601f891682610fe3565b8355505b6001600288020188555050505b505050505050565b7f4e487b7100000000000000000000000000000000000000000000000000000000600052601260045260246000fd5b600061112982610a7b565b915061113483610a7b565b925082611144576111436110ef565b5b828206905092915050565b7f547279696e6720746f207769746864726177206d6f6e6579206d6f726520746860008201527f616e20746820636f6e7472616374206861732100000000000000000000000000602082015250565b60006111ab603383610d6e565b91506111b68261114f565b604082019050919050565b600060208201905081810360008301526111da8161119e565b9050919050565b600081905092915050565b50565b60006111fc6000836111e1565b9150611207826111ec565b600082019050919050565b600061121d826111ef565b9150819050919050565b7f4661696c656420746f207769746864726177206d6f6e65792066726f6d20636f60008201527f6e74726163740000000000000000000000000000000000000000000000000000602082015250565b6000611283602683610d6e565b915061128e82611227565b604082019050919050565b600060208201905081810360008301526112b281611276565b9050919050565b60006112c482610b1c565b6112ce8185610d6e565b93506112de818560208601610b38565b6112e7816108f6565b840191505092915050565b60006040820190506113076000830185610a85565b818103602083015261131981846112b9565b90509392505050565b6000602082019050818103600083015261133c81846112b9565b905092915050565b61134d81610afb565b82525050565b6000606082019050818103600083015261136d81866112b9565b905061137c6020830185611344565b818103604083015261138e81846112b9565b9050949350505050565b600060408201905081810360008301526113b281856112b9565b90506113c16020830184610a85565b9392505050565b600060408201905081810360008301526113e281856112b9565b90506113f16020830184611344565b939250505056fea26469706673582212209c47a68d958787fc3ca6d99efc69de1810d9f824ef336248059f43263b19b06d64736f6c63430008110033",
  "linkReferences": {},
  "deployedLinkReferences": {}
}